{
  "contractName": "storeData",
  "abi": [
    {
      "inputs": [
        {
          "internalType": "string",
          "name": "_addr",
          "type": "string"
        },
        {
          "components": [
            {
              "internalType": "string",
              "name": "name",
              "type": "string"
            },
            {
              "internalType": "uint256",
              "name": "data",
              "type": "uint256"
            },
            {
              "internalType": "uint256",
              "name": "timeCreated",
              "type": "uint256"
            },
            {
              "internalType": "uint256",
              "name": "timeToStore",
              "type": "uint256"
            }
          ],
          "internalType": "struct Data",
          "name": "_data",
          "type": "tuple"
        }
      ],
      "name": "clientAddData",
      "outputs": [],
      "stateMutability": "nonpayable",
      "type": "function"
    },
    {
      "inputs": [],
      "name": "getAllClient",
      "outputs": [
        {
          "internalType": "string",
          "name": "",
          "type": "string"
        }
      ],
      "stateMutability": "view",
      "type": "function",
      "constant": true
    }
  ],
  "bytecode": "0x608060405234801561001057600080fd5b506114f0806100206000396000f3fe608060405234801561001057600080fd5b50600436106100365760003560e01c80637bc0147e1461003b57806385a6e3b914610059575b600080fd5b610043610075565b6040516100509190610820565b60405180910390f35b610073600480360381019061006e9190610abf565b6101dc565b005b606060006040518060400160405280600281526020017f7b0a000000000000000000000000000000000000000000000000000000000000815250905060005b6001805490508110156101b2576000600182815481106100d7576100d6610b3b565b5b906000526020600020015490506100ee6001610398565b5082600080838152602001908152602001600020600101604051602001610116929190610cea565b60405160208183030381529060405292506101316001610398565b508261014f60008084815260200190815260200160002060026103eb565b604051602001610160929190610d78565b604051602081830303815290604052925061017b6001610398565b508260405160200161018d9190610de0565b60405160208183030381529060405292505080806101aa90610e35565b9150506100b4565b50806040516020016101c49190610ea3565b60405160208183030381529060405290508091505090565b600083836040516101ee929190610ef9565b6040518091039020905060008260000151805190602001209050600080600084815260200190815260200160002060020180549050036102c5576001829080600181540180825580915050600190039060005260206000200160009091909190915055600167ffffffffffffffff81111561026c5761026b6108c0565b5b60405190808252806020026020018201604052801561029a5781602001602082028036833780820191505090505b5060008084815260200190815260200160002060020190805190602001906102c3929190610726565b505b600080600084815260200190815260200160002060000160008381526020019081526020016000206002015403610333576000808381526020019081526020016000206002018190806001815401808255809150506001900390600052602060002001600090919091909150555b826000808481526020019081526020016000206000016000838152602001908152602001600020600082015181600001908161036f91906110a9565b506020820151816001015560408201518160020155606082015181600301559050505050505050565b606060006040518060200160405280600081525090505b8260ff16815110156103e257806040516020016103cc91906111a1565b60405160208183030381529060405290506103af565b80915050919050565b6060600060405180602001604052806000815250905060005b846002018054905081101561059357600085600201828154811061042b5761042a610b3b565b5b906000526020600020015490508261044e60018761044991906111d4565b610398565b60405160200161045f92919061122f565b60405160208183030381529060405292508261047a86610398565b60405160200161048b929190611262565b6040516020818303038152906040529250828660000160008381526020019081526020016000206000016040516020016104c69291906112d2565b6040516020818303038152906040529250826104e186610398565b6040516020016104f2929190611262565b6040516020818303038152906040529250826105258760000160008481526020019081526020016000206001015461059e565b60405160200161053692919061133a565b60405160208183030381529060405292508261055d60018761055891906111d4565b610398565b60405160200161056e92919061137c565b604051602081830303815290604052925050808061058b90610e35565b915050610404565b508091505092915050565b6060600082036105e5576040518060400160405280600181526020017f30000000000000000000000000000000000000000000000000000000000000008152509050610721565b600082905060005b6000821461061757808061060090610e35565b915050600a8261061091906113de565b91506105ed565b60008167ffffffffffffffff811115610633576106326108c0565b5b6040519080825280601f01601f1916602001820160405280156106655781602001600182028036833780820191505090505b50905060008290505b6000861461071957600181610683919061140f565b90506000600a808861069591906113de565b61069f9190611443565b876106aa919061140f565b60306106b69190611485565b905060008160f81b9050808484815181106106d4576106d3610b3b565b5b60200101907effffffffffffffffffffffffffffffffffffffffffffffffffffffffffffff1916908160001a905350600a8861071091906113de565b9750505061066e565b819450505050505b919050565b828054828255906000526020600020908101928215610762579160200282015b82811115610761578251825591602001919060010190610746565b5b50905061076f9190610773565b5090565b5b8082111561078c576000816000905550600101610774565b5090565b600081519050919050565b600082825260208201905092915050565b60005b838110156107ca5780820151818401526020810190506107af565b60008484015250505050565b6000601f19601f8301169050919050565b60006107f282610790565b6107fc818561079b565b935061080c8185602086016107ac565b610815816107d6565b840191505092915050565b6000602082019050818103600083015261083a81846107e7565b905092915050565b6000604051905090565b600080fd5b600080fd5b600080fd5b600080fd5b600080fd5b60008083601f84011261087b5761087a610856565b5b8235905067ffffffffffffffff8111156108985761089761085b565b5b6020830191508360018202830111156108b4576108b3610860565b5b9250929050565b600080fd5b7f4e487b7100000000000000000000000000000000000000000000000000000000600052604160045260246000fd5b6108f8826107d6565b810181811067ffffffffffffffff82111715610917576109166108c0565b5b80604052505050565b600061092a610842565b905061093682826108ef565b919050565b600080fd5b600080fd5b600067ffffffffffffffff8211156109605761095f6108c0565b5b610969826107d6565b9050602081019050919050565b82818337600083830152505050565b600061099861099384610945565b610920565b9050828152602081018484840111156109b4576109b3610940565b5b6109bf848285610976565b509392505050565b600082601f8301126109dc576109db610856565b5b81356109ec848260208601610985565b91505092915050565b6000819050919050565b610a08816109f5565b8114610a1357600080fd5b50565b600081359050610a25816109ff565b92915050565b600060808284031215610a4157610a406108bb565b5b610a4b6080610920565b9050600082013567ffffffffffffffff811115610a6b57610a6a61093b565b5b610a77848285016109c7565b6000830152506020610a8b84828501610a16565b6020830152506040610a9f84828501610a16565b6040830152506060610ab384828501610a16565b60608301525092915050565b600080600060408486031215610ad857610ad761084c565b5b600084013567ffffffffffffffff811115610af657610af5610851565b5b610b0286828701610865565b9350935050602084013567ffffffffffffffff811115610b2557610b24610851565b5b610b3186828701610a2b565b9150509250925092565b7f4e487b7100000000000000000000000000000000000000000000000000000000600052603260045260246000fd5b600081905092915050565b6000610b8082610790565b610b8a8185610b6a565b9350610b9a8185602086016107ac565b80840191505092915050565b7f22636c69656e744e616d65223a22000000000000000000000000000000000000815250565b7f4e487b7100000000000000000000000000000000000000000000000000000000600052602260045260246000fd5b60006002820490506001821680610c1357607f821691505b602082108103610c2657610c25610bcc565b5b50919050565b60008190508160005260206000209050919050565b60008154610c4e81610bfb565b610c588186610b6a565b94506001821660008114610c735760018114610c8857610cbb565b60ff1983168652811515820286019350610cbb565b610c9185610c2c565b60005b83811015610cb357815481890152600182019150602081019050610c94565b838801955050505b50505092915050565b7f222c0a0000000000000000000000000000000000000000000000000000000000815250565b6000610cf68285610b75565b9150610d0182610ba6565b600e82019150610d118284610c41565b9150610d1c82610cc4565b6003820191508190509392505050565b7f22636c69656e7444617461223a00000000000000000000000000000000000000815250565b7f0a00000000000000000000000000000000000000000000000000000000000000815250565b6000610d848285610b75565b9150610d8f82610d2c565b600d82019150610d9f8284610b75565b9150610daa82610d52565b6001820191508190509392505050565b7f7d2c0a0000000000000000000000000000000000000000000000000000000000815250565b6000610dec8284610b75565b9150610df782610dba565b60038201915081905092915050565b7f4e487b7100000000000000000000000000000000000000000000000000000000600052601160045260246000fd5b6000610e40826109f5565b91507fffffffffffffffffffffffffffffffffffffffffffffffffffffffffffffffff8203610e7257610e71610e06565b5b600182019050919050565b7f7d00000000000000000000000000000000000000000000000000000000000000815250565b6000610eaf8284610b75565b9150610eba82610e7d565b60018201915081905092915050565b600081905092915050565b6000610ee08385610ec9565b9350610eed838584610976565b82840190509392505050565b6000610f06828486610ed4565b91508190509392505050565b60006020601f8301049050919050565b600082821b905092915050565b600060088302610f5f7fffffffffffffffffffffffffffffffffffffffffffffffffffffffffffffffff82610f22565b610f698683610f22565b95508019841693508086168417925050509392505050565b6000819050919050565b6000610fa6610fa1610f9c846109f5565b610f81565b6109f5565b9050919050565b6000819050919050565b610fc083610f8b565b610fd4610fcc82610fad565b848454610f2f565b825550505050565b600090565b610fe9610fdc565b610ff4818484610fb7565b505050565b5b818110156110185761100d600082610fe1565b600181019050610ffa565b5050565b601f82111561105d5761102e81610c2c565b61103784610f12565b81016020851015611046578190505b61105a61105285610f12565b830182610ff9565b50505b505050565b600082821c905092915050565b600061108060001984600802611062565b1980831691505092915050565b6000611099838361106f565b9150826002028217905092915050565b6110b282610790565b67ffffffffffffffff8111156110cb576110ca6108c0565b5b6110d58254610bfb565b6110e082828561101c565b600060209050601f8311600181146111135760008415611101578287015190505b61110b858261108d565b865550611173565b601f19841661112186610c2c565b60005b8281101561114957848901518255600182019150602085019450602081019050611124565b868310156111665784890151611162601f89168261106f565b8355505b6001600288020188555050505b505050505050565b7f0900000000000000000000000000000000000000000000000000000000000000815250565b60006111ad8284610b75565b91506111b88261117b565b60018201915081905092915050565b600060ff82169050919050565b60006111df826111c7565b91506111ea836111c7565b9250828203905060ff81111561120357611202610e06565b5b92915050565b7f7b0a000000000000000000000000000000000000000000000000000000000000815250565b600061123b8285610b75565b91506112478284610b75565b915061125282611209565b6002820191508190509392505050565b600061126e8285610b75565b915061127a8284610b75565b91508190509392505050565b7f22646174614e616d65223a000000000000000000000000000000000000000000815250565b7f2c00000000000000000000000000000000000000000000000000000000000000815250565b60006112de8285610b75565b91506112e982611286565b600b820191506112f98284610c41565b9150611304826112ac565b6001820191508190509392505050565b7f226461746156616c7565223a0000000000000000000000000000000000000000815250565b60006113468285610b75565b915061135182611314565b600c820191506113618284610b75565b915061136c82610d52565b6001820191508190509392505050565b60006113888285610b75565b91506113948284610b75565b915061139f82610dba565b6003820191508190509392505050565b7f4e487b7100000000000000000000000000000000000000000000000000000000600052601260045260246000fd5b60006113e9826109f5565b91506113f4836109f5565b925082611404576114036113af565b5b828204905092915050565b600061141a826109f5565b9150611425836109f5565b925082820390508181111561143d5761143c610e06565b5b92915050565b600061144e826109f5565b9150611459836109f5565b9250828202611467816109f5565b9150828204841483151761147e5761147d610e06565b5b5092915050565b6000611490826111c7565b915061149b836111c7565b9250828201905060ff8111156114b4576114b3610e06565b5b9291505056fea2646970667358221220ceecfc5bb5c0934198e864ff82dfb8d225f16fcee6c713a213753c42d32528d564736f6c63430008130033",
  "immutableReferences": {},
  "source": "// SPDX-License-Identifier: Beerware\npragma solidity >=0.4.22 <0.9.0;\n\nstruct Data {\n\tstring name; //has to be unique\n\tuint256 data;\n\tuint timeCreated;\n\tuint timeToStore;\n}\n\nstruct Client {\n\tmapping (bytes32 => Data) data;\n\tstring name;\n\tbytes32[] keyList;\n}\n\ncontract storeData {\n\t//Client[] public clients;//for now just a vector, \n\t//later we can try to see if a bin tree is more efficient\n\n\t//i changed my mind lets try mappings\n\tmapping (bytes32 => Client) clients;\n\tbytes32[] listClientKey;\n\t//oh god\n\t//uh so it is a map of maps, so key1 gives client, key2 keys\n\t//each client has a map of keys\n\t//each keys (client or data) is the hash of addr\n\n\tfunction clearClient(bytes32 hashAddr) internal {\n\t\t//delete every key\n\t\tfor(uint i = 0 ; i < clients[hashAddr].keyList.length ; i++)  {\n\t\t\tbytes32 addrData = clients[hashAddr].keyList[i];\n\t\t\tdelete clients[hashAddr].data[addrData];\n\t\t}\n\t}\n\n\tfunction deleteClient(string calldata _addr) internal {\n\t\tbytes32 hashAddr = keccak256(bytes(_addr));\n\n\t\tclearClient(hashAddr);\n\t\tdelete clients[hashAddr];\n\t}\n\n\tfunction clientAddData(\n\t\t\tstring calldata _addr,\n\t\t\tData memory _data) public {\n\t\tbytes32 hashAddr = keccak256(bytes(_addr));\n\t\tbytes32 hashData = keccak256(bytes(_data.name));\n\n\t\t// check if client key exists, if not add it\n\t\tif(clients[hashAddr].keyList.length == 0) {\n\t\t\tlistClientKey.push(hashAddr);\n\t\t\tclients[hashAddr].keyList = new bytes32[](1);\n\t\t}\n\n\t\t//check if data key exists\n\t\tif(clients[hashAddr].data[hashData].timeCreated == 0) {\n\t\t\tclients[hashAddr].keyList.push(hashData);\n\t\t}\n\n\t\tclients[hashAddr].data[hashData] = _data;\n\t}\n\n\tfunction getAllData(Client storage client, uint8 i) internal view returns(string memory){\n\t\t//get all data from a client, and format in json like fashion\n\t\tstring memory res = \"\";\n\t\tfor(uint k = 0 ; k < client.keyList.length ; k++) {\n\t\t\tbytes32 idx = client.keyList[k];\n\t\t\tres = string.concat(res, indent(i - 1), \"{\\n\");\n\t\t\tres = string.concat(res, indent(i));\n\t\t\tres = string.concat(res, '\"dataName\":', client.data[idx].name, ',');\n\t\t\tres = string.concat(res, indent(i));\n\t\t\tres = string.concat(res, '\"dataValue\":', uint2str(client.data[idx].data), '\\n');\n\t\t\tres = string.concat(res, indent(i - 1), \"},\\n\");\n\t\t}\n\t\treturn res;\n\t}\n\n\tfunction getAllClient() external view returns(string memory){\n\t\t//get all client and their data, format it in a json like fashion\n\t\tstring memory res = \"{\\n\";\n\t\tfor(uint i = 0 ; i < listClientKey.length ; i++)  {\n\t\t\tbytes32 idx = listClientKey[i];\n\t\t\tindent(1);\n\t\t\tres = string.concat(res, '\"clientName\":\"', clients[idx].name, '\",\\n');\n\t\t\tindent(1);\n\t\t\tres = string.concat(res, '\"clientData\":', getAllData(clients[idx], 2), '\\n');\n\t\t\tindent(1);\n\t\t\tres = string.concat(res, '},\\n');\n\t\t}\n\t\tres = string.concat(res, '}');\n\t\treturn res;\n\t}\n\n\tfunction indent(uint8 i) internal pure returns(string memory){\n\t\tstring memory res = \"\";\n\t\tfor( ; bytes(res).length < i ; ) {\n\t\t\tres = string.concat(res, \"\\t\");\n\t\t}\n\t\treturn res;\n\t}\n\n\t//stole that from https://stackoverflow.com/questions/47129173/how-to-convert-uint-to-string-in-solidity\n\tfunction uint2str(uint _i) internal pure returns (string memory _uintAsString) {\n\t\tif (_i == 0) {\n\t\t\treturn \"0\";\n\t\t}\n\t\tuint j = _i;\n\t\tuint len;\n\t\twhile (j != 0) {\n\t\t\tlen++;\n\t\t\tj /= 10;\n\t\t}\n\t\tbytes memory bstr = new bytes(len);\n\t\tuint k = len;\n\t\twhile (_i != 0) {\n\t\t\tk = k-1;\n\t\t\tuint8 temp = (48 + uint8(_i - _i / 10 * 10));\n\t\t\tbytes1 b1 = bytes1(temp);\n\t\t\tbstr[k] = b1;\n\t\t\t_i /= 10;\n\t\t}\n\t\treturn string(bstr);\n\t}\n}\n",
  "sourcePath": "/home/paulinma/blockchain/caramell-blockchain/truffle/contracts/storeData.sol",
  "compiler": {
    "name": "solc",
    "version": "0.8.19+commit.7dd6d404.Emscripten.clang"
  },
  "schemaVersion": "3.4.14",
  "updatedAt": "2023-06-07T13:12:49.902Z",
  "networkType": "ethereum",
  "devdoc": {
    "kind": "dev",
    "methods": {},
    "version": 1
  },
  "userdoc": {
    "kind": "user",
    "methods": {},
    "version": 1
  }
}